:020000040800F2
:1000000000000220AD0C0008E50A0008ED0A000817
:10001000F50A0008FD0A0008050B000800000000B2
:100020000000000000000000000000000D0B0008B0
:100030001B0B000800000000290B0008370B00080C
:10004000FD0C0008FD0C0008FD0C0008FD0C00086C
:10005000FD0C0008FD0C0008FD0C0008FD0C00085C
:10006000FD0C0008FD0C0008FD0C0008FD0C00084C
:10007000FD0C0008FD0C0008FD0C0008FD0C00083C
:10008000FD0C0008FD0C0008FD0C0008FD0C00082C
:10009000FD0C0008FD0C0008FD0C0008FD0C00081C
:1000A000FD0C0008FD0C0008FD0C0008FD0C00080C
:1000B000FD0C0008FD0C0008FD0C0008FD0C0008FC
:1000C000FD0C0008FD0C0008FD0C0008FD0C0008EC
:1000D000FD0C0008FD0C0008FD0C0008FD0C0008DC
:1000E000FD0C0008FD0C0008FD0C0008FD0C0008CC
:1000F000FD0C0008FD0C0008FD0C0008FD0C0008BC
:10010000FD0C0008FD0C0008FD0C0008FD0C0008AB
:10011000FD0C0008FD0C0008FD0C0008FD0C00089B
:10012000FD0C0008FD0C0008FD0C0008FD0C00088B
:10013000FD0C00080000000000000000FD0C00089D
:10014000FD0C0008FD0C0008FD0C0008FD0C00086B
:10015000FD0C0008FD0C0008FD0C0008FD0C00085B
:10016000FD0C0008FD0C0008FD0C0008FD0C00084B
:10017000FD0C0008FD0C000800000000000000005D
:08018000FD0C0008FD0C000855
:1001900010B5054C237833B9044B13B10448AFF3C1
:1001A00000800123237010BD6800002000000000C3
:1001B000803A000808B5034B1BB103490348AFF36D
:1001C000008008BD000000006C000020803A00089C
:1001D00001F0FF01102A2BDB10F0070F08D010F8F8
:1001E000013B013A8B422DD010F0070F42B3F6D1FC
:1001F000F0B441EA012141EA014122F007047FF015
:1002000000070023F0E80256083C85EA010586EA6B
:10021000010685FA47F5A3FA87F586FA47F6A5FAA7
:1002200087F68EB9EED1F0BC01F0FF0102F00702B3
:1002300032B110F8013B013A83EA010313B1F8D15E
:100240000020704701387047002D06BF354603383F
:10025000073815F0010F07D1013015F4807F02BF78
:10026000013015F4C03F0130F0BC0138704700BFC9
:1002700053B94AB9002908BF00281CBF4FF0FF310D
:100280004FF0FF3000F06AB9ADF1080C6DE904CE13
:1002900000F006F8DDF804E0DDE9022304B0704761
:1002A0002DE9F047089D0C46002B4ED194468C4515
:1002B0008646B2FA82F262D94AB1C2F12003914075
:1002C00020FA03F30CFA02FC194300FA02FE4FEA8B
:1002D0001C471FFA8CF6B1FBF7F44FEA1E4307FBED
:1002E000141143EA014304FB06F199420AD91CEBBD
:1002F000030304F1FF3080F01281994240F20F8134
:10030000023C6344591A1FFA8EF3B1FBF7F007FB66
:10031000101143EA014300FB06F69E420AD91CEB8A
:10032000030300F1FF3180F0FC809E4240F2F9802F
:10033000634402389B1B40EA044000211DB1D340B6
:100340000022C5E90032BDE8F0878B4205D90DB126
:10035000C5E9000100210846F5E7B3FA83F1002959
:1003600046D1A34202D39042C0F0F080861A64EBDB
:1003700003030120002DE6D0C5E90063E3E7002A6E
:1003800040F09080A1EB0C044FEA1C481FFA8CF758
:100390000121B4FBF8F64FEA1E4308FB164443EA7A
:1003A000044307FB06F0984208D91CEB030306F14F
:1003B000FF3402D2984200F2CD8026461C1A1FFA62
:1003C0008EF3B4FBF8F008FB104443EA044300FB4F
:1003D00007F79F4208D91CEB030300F1FF3402D258
:1003E0009F4200F2B0802046DB1B40EA0640A5E7B2
:1003F000C1F120068B4022FA06F71F4320FA06FCC3
:1004000004FA01F343EA0C03F44000FA01F8380C53
:100410004FEA1349B4FBF0FE1FFA87FC00FB1E44B1
:1004200049EA04440EFB0CF9A14502FA01F20AD98B
:100430003C190EF1FF3A80F08480A14540F28180A2
:10044000AEF1020E3C44A4EB09041FFA83F9B4FB9D
:10045000F0F300FB134449EA044403FB0CFCA445FD
:1004600007D93C1903F1FF3067D2A44565D9023B97
:100470003C4443EA0E40A0FB0293A4EB0C049C42D4
:10048000CE469C4651D34ED055B1B8EB0E0364EB2B
:100490000C0404FA06F6CB401E43CC40C5E90064C8
:1004A000002150E7C2F1200320FA03F10CFA02FC0C
:1004B00024FA03F394400C434FEA1C4800FA02FE6E
:1004C0001FFA8CF7B3FBF8F008FB1031230C43EA5A
:1004D000014300FB07F1994208D91CEB030300F12B
:1004E000FF362CD299422AD9023863445B1AA4B24F
:1004F000B3FBF8F108FB113344EA034401FB07F3B3
:10050000A34208D91CEB040401F1FF3613D2A34225
:1005100011D902396444E41A41EA004139E704463A
:10052000F0E6084606E7C845AED2B9EB020E63EB2B
:10053000070C0138A8E73146EDE7034699E7304656
:10054000D4E7D6467FE7634402384DE706462346A4
:1005500008460FE7023E634430E700BF704700BF24
:1005600080B586B000AF3B1D00221A605A609A60C9
:10057000DA601A6100233B600D4B1B6B0C4A43F0A1
:10058000040313630A4B1B6B03F004033B603B68DB
:100590004FF400537B600023BB600223FB603B1DD4
:1005A0001946044800F004FD00BF1837BD4680BD61
:1005B000003802400008024080B500AF4FF40051FF
:1005C000054800F091FE0346012B0CBF01230023D8
:1005D000DBB2184680BD00BF0008024080B586B07F
:1005E00000AF3B1D00221A605A609A60DA601A61FF
:1005F00000233B60104B1B6B0F4A43F00203136355
:100600000D4B1B6B03F002033B603B68002204218F
:100610000A4800F081FE04237B600123BB600023B5
:10062000FB6000233B613B1D1946044800F0C0FC01
:1006300000BF1837BD4680BD0038024000040240AC
:1006400080B500AF0421024800F07FFE00BF80BDEE
:100650000004024080B582B000AF0346FB71FB7915
:10066000002B05D001220421064800F055FE04E0CD
:1006700000220421034800F04FFE00BF0837BD46AA
:1006800080BD00BF0004024080B582B000AF78603A
:10069000391D4FF0FF330122034801F007FF7B684B
:1006A00018460837BD4680BDA4000020B0B594B000
:1006B00004AF00F025FB00F069F800F04BF900F002
:1006C0001FF900F0C3F8FFF74BFFFFF787FF00F0BB
:1006D0007DFB0346C833FB6300F078FBB86300F092
:1006E00075FBB863FFF768FF0346002B09D0BA6BB0
:1006F000FB6B9A42F3D3BB6BC833FB63FFF7A0FFDE
:10070000EDE7BA6BFB6B9A42E9D3BB6B3233FB6309
:1007100007F1200300221946194801F088FC07F16F
:10072000340300221946164801F063FD97F8222091
:10073000144B1B789A421FD097F82220114B1A7045
:1007400097F83730184697F835301C4697F836300A
:100750001D4697F8203097F8212097F82210029133
:10076000019200932B4622460146074802F01CFBEB
:100770000120FFF76FFFB2E70020FFF76BFFAEE746
:1007800084000020EC000020983A000880B594B066
:1007900000AF07F1200330220021184602F016FBBB
:1007A00007F10C0300221A605A609A60DA601A613D
:1007B0000023BB60234B1B6C224A43F0805313641D
:1007C000204B1B6C03F08053BB60BB6800237B6035
:1007D0001D4B1B681C4A43F4804313601A4B1B6873
:1007E00003F480437B607B680A233B620123FB6246
:1007F00010233B6301237B630023BB6307F12003CA
:10080000184600F0BDFD0346002B01D000F0CAF8E9
:100810000F23FB6000233B6100237B610023BB614E
:100820000023FB6107F10C030021184601F020F8BA
:100830000346002B01D000F0B5F800BF5037BD468D
:1008400080BD00BF003802400070004080B586B017
:1008500000AF3B1D00221A605A609A60DA601A618C
:1008600000233B60244B254A1A60234B00225A6028
:10087000214B7F229A60204BFF22DA601E4B002220
:100880001A611D4B00225A611B4B00229A611A48C3
:1008900001F0B0FA0346002B01D000F083F80023EA
:1008A0003B7100237B710023BB7100233B6100235C
:1008B0007B613B1D012219460F4801F01EFB0346D8
:1008C000002B01D000F06EF801233B7001237B70F8
:1008D0000123BB700023FB703B46012219460648EA
:1008E00001F003FC0346002B01D000F05BF800BFD1
:1008F0001837BD4680BD00BF84000020002800409E
:1009000080B500AF114B124A1A60104B4FF4E13220
:100910005A600E4B00229A600C4B0022DA600B4B9F
:1009200000221A61094B0C225A61084B00229A617D
:10093000064B0022DA61054801F068FD0346002BF2
:1009400001D000F02FF800BF80BD00BFA400002040
:100950000010014080B483B000AF00237B60104BD7
:100960001B6B0F4A43F0800313630D4B1B6B03F0AB
:1009700080037B607B6800233B60094B1B6B084A4C
:1009800043F001031363064B1B6B03F001033B6051
:100990003B6800BF0C37BD465DF8047B704700BF65
:1009A0000038024080B400AF72B600BF00BFFDE760
:1009B00080B483B000AF00237B60104B5B6C0F4AA8
:1009C00043F4804353640D4B5B6C03F480437B60C2
:1009D0007B6800233B60094B1B6C084A43F0805343
:1009E0001364064B1B6C03F080533B603B6800BFF5
:1009F0000C37BD465DF8047B704700BF00380240ED
:100A000080B586B000AF786007F1080300221A6055
:100A10005A609A60DA607B681B680C4A934211D175
:100A20000223BB604FF400737B6107F10803184693
:100A300001F0FEF80346002B01D0FFF7B3FF044B93
:100A400001221A6000BF1837BD4680BD0028004053
:100A50003C0E474280B58AB000AF786007F11403BE
:100A600000221A605A609A60DA601A617B681B681B
:100A7000194A93422CD100233B61184B5B6C174AF7
:100A800043F010035364154B5B6C03F010033B61A0
:100A90003B690023FB60114B1B6B104A43F00103C1
:100AA00013630E4B1B6B03F00103FB60FB684FF4F9
:100AB000C0637B610223BB610023FB6103233B62B4
:100AC00007237B6207F114031946054800F070FA0A
:100AD00000BF2837BD4680BD0010014000380240ED
:100AE0000000024080B400AF00BFFDE780B400AF5B
:100AF00000BFFDE780B400AF00BFFDE780B400AFEA
:100B000000BFFDE780B400AF00BFFDE780B400AFD9
:100B100000BFBD465DF8047B704780B400AF00BFE6
:100B2000BD465DF8047B704780B400AF00BFBD4692
:100B30005DF8047B704780B500AF00F033F900BF6B
:100B400080BD80B586B000AFF860B9607A600023E0
:100B50007B610AE0AFF300800146BB685A1CBA60B3
:100B6000CAB21A707B6901337B617A697B689A42E9
:100B7000F0DB7B6818461837BD4680BD80B586B06F
:100B800000AFF860B9607A6000237B6109E0BB6860
:100B90005A1CBA601B781846FFF776FD7B69013353
:100BA0007B617A697B689A42F1DB7B68184618376B
:100BB000BD4680BD80B483B000AF78604FF0FF3396
:100BC00018460C37BD465DF8047B704780B483B08F
:100BD00000AF786039603B684FF400525A600023E0
:100BE00018460C37BD465DF8047B704780B483B06F
:100BF00000AF7860012318460C37BD465DF8047BD2
:100C0000704780B485B000AFF860B9607A600023A7
:100C100018461437BD465DF8047B704780B586B032
:100C200000AF7860144A154BD31A7B617B693B6136
:100C3000134B1B68002B02D1114B124A1A60104B48
:100C40001A687B6813443A699A4207D202F0C6F8E0
:100C500003460C221A604FF0FF3309E0084B1B6873
:100C6000FB60074B1A687B681344054A1360FB68F6
:100C700018461837BD4680BD000002200004000061
:100C8000F00000204802002080B400AF064BD3F8EB
:100C90008830054A43F47003C2F8883000BFBD466F
:100CA0005DF8047B704700BF00ED00E0DFF834D052
:100CB000FFF7EAFF0C480D490D4A002302E0D45823
:100CC000C4500433C4188C42F9D30A4A0A4C002396
:100CD00001E013600432A242FBD302F085F8FFF773
:100CE000E5FC7047000002200000002068000020A2
:100CF0001C3B00086800002044020020FEE70000C2
:100D000080B500AF0E4B1B680D4A43F400731360AF
:100D10000B4B1B680A4A43F480631360084B1B6843
:100D2000074A43F480731360032000F00DF90F208D
:100D300000F008F8FFF73CFE0023184680BD00BF16
:100D4000003C024080B582B000AF7860124B1A6858
:100D5000124B1B7819464FF47A73B3FBF1F3B2FBD5
:100D6000F3F3184600F017F90346002B01D00123D6
:100D70000EE07B680F2B0AD8002279684FF0FF3015
:100D800000F0EDF8064A7B681360002300E00123C1
:100D900018460837BD4680BD00000020080000202E
:100DA0000400002080B400AF064B1B781A46064BA7
:100DB0001B681344044A136000BFBD465DF8047B02
:100DC000704700BF08000020F400002080B400AF8E
:100DD000034B1B681846BD465DF8047B704700BF97
:100DE000F400002080B485B000AF78607B6803F029
:100DF0000703FB600C4BDB68BB60BA684FF6FF0370
:100E00001340BB60FB681A02BB68134343F0BF6327
:100E100043F40033BB60044ABB68D36000BF14379F
:100E2000BD465DF8047B704700ED00E080B400AF84
:100E3000044BDB681B0A03F007031846BD465DF848
:100E4000047B704700ED00E080B483B000AF034640
:100E50003960FB7197F90730002B0ADB3B68DAB287
:100E60000C4997F907301201D2B20B4483F80023E2
:100E70000AE03B68DAB20849FB7903F00F03043B50
:100E80001201D2B20B441A7600BF0C37BD465DF892
:100E9000047B704700E100E000ED00E080B489B021
:100EA00000AFF860B9607A60FB6803F00703FB618C
:100EB000FB69C3F10703042B28BF0423BB61FB6953
:100EC0000433062B02D9FB69033B00E000237B615E
:100ED0004FF0FF32BB6902FA03F3DA43BB681A40F2
:100EE0007B699A404FF0FF317B6901FA03F3D943E4
:100EF0007B680B40134318462437BD465DF8047BDE
:100F00007047000080B582B000AF78607B68013B1D
:100F1000B3F1807F01D301230FE00A4A7B68013BD4
:100F200053600F214FF0FF30FFF78EFF054B00227B
:100F30009A60044B07221A60002318460837BD4602
:100F400080BD00BF10E000E080B582B000AF7860E7
:100F50007868FFF747FF00BF0837BD4680BD80B502
:100F600086B000AF0346B9607A60FB7300237B61F3
:100F7000FFF75CFF78617A68B9687869FFF78EFFE0
:100F8000024697F90F3011461846FFF75DFF00BF84
:100F90001837BD4680BD80B582B000AF78607868F4
:100FA000FFF7B0FF034618460837BD4680BD000076
:100FB00080B489B000AF7860396000237B61002382
:100FC0003B610023BB610023FB616BE10122FB69F4
:100FD00002FA03F37B613B681B687A6913403B614B
:100FE0003A697B699A4240F05A813B685B6803F03A
:100FF0000303012B05D03B685B6803F00303022B5E
:1010000030D17B689B68BB61FB695B00032202FAFD
:1010100003F3DB43BA691340BB613B68DA68FB69E1
:101020005B0002FA03F3BA691343BB617B68BA69D8
:101030009A607B685B68BB610122FB6902FA03F37B
:10104000DB43BA691340BB613B685B681B0903F073
:101050000102FB6902FA03F3BA691343BB617B68BF
:10106000BA695A603B685B6803F00303032B17D02F
:101070007B68DB68BB61FB695B00032202FA03F358
:10108000DB43BA691340BB613B689A68FB695B004C
:1010900002FA03F3BA691343BB617B68BA69DA6089
:1010A0003B685B6803F00303022B23D1FB69DA087A
:1010B0007B68083253F82230BB61FB6903F00703F9
:1010C0009B000F2202FA03F3DB43BA691340BB61B2
:1010D0003B681A69FB6903F007039B0002FA03F3FC
:1010E000BA691343BB61FB69DA087B680832B969E6
:1010F00043F822107B681B68BB61FB695B0003221D
:1011000002FA03F3DB43BA691340BB613B685B68D7
:1011100003F00302FB695B0002FA03F3BA691343AD
:10112000BB617B68BA691A603B685B6803F4403353
:10113000002B00F0B4800023FB60604B5B6C5F4AC7
:1011400043F4804353645D4B5B6C03F48043FB606A
:10115000FB685B4AFB699B08023352F82330BB6192
:10116000FB6903F003039B000F2202FA03F3DB4346
:10117000BA691340BB617B68524A93422BD07B68AB
:10118000514A934225D07B68504A93421FD07B68D6
:101190004F4A934219D07B684E4A934213D07B68E2
:1011A0004D4A93420DD07B684C4A934207D07B68EE
:1011B0004B4A934201D107230EE008230CE006239B
:1011C0000AE0052308E0042306E0032304E00223E9
:1011D00002E0012300E00023FA6902F0030292001A
:1011E0009340BA691343BB613549FB699B080233DD
:1011F000BA6941F823203B4B9B68BB613B69DB43E9
:10120000BA691340BB613B685B6803F48013002B31
:1012100003D0BA693B691343BB61324ABB6993602F
:10122000304BDB68BB613B69DB43BA691340BB6190
:101230003B685B6803F40013002B03D0BA693B6979
:101240001343BB61274ABB69D360264B5B68BB6114
:101250003B69DB43BA691340BB613B685B6803F4DD
:101260000033002B03D0BA693B691343BB611D4AAD
:10127000BB6953601B4B1B68BB613B69DB43BA69AD
:101280001340BB613B685B6803F48033002B03D0E1
:10129000BA693B691343BB61124ABB691360FB69BE
:1012A0000133FB61FB690F2B7FF690AE00BF00BFDF
:1012B0002437BD465DF8047B704700BF003802400C
:1012C00000380140000002400004024000080240D3
:1012D000000C0240001002400014024000180240BE
:1012E000001C0240003C014080B485B000AF786033
:1012F0000B467B807B681A697B881340002B02D0E9
:101300000123FB7301E00023FB73FB7B18461437BA
:10131000BD465DF8047B704780B483B000AF786051
:101320000B467B8013467B707B78002B03D07A883A
:101330007B689A6103E07B881A047B689A6100BF2E
:101340000C37BD465DF8047B704780B485B000AFB4
:1013500078600B467B807B685B69FB607A88FB6802
:1013600013401A04FB68D9437B880B401A437B68FF
:101370009A6100BF1437BD465DF8047B70470000DA
:1013800080B586B000AF78607B68002B01D1012367
:1013900067E27B681B6803F00103002B75D0884B64
:1013A0009B6803F00C03042B0CD0854B9B6803F067
:1013B0000C03082B12D1824B5B6803F48003B3F556
:1013C000800F0BD17E4B1B6803F40033002B5BD0E6
:1013D0007B685B68002B57D1012342E27B685B6826
:1013E000B3F5803F06D1764B1B68754A43F48033D2
:1013F00013601DE07B685B68B3F5A02F0CD1704BC8
:101400001B686F4A43F4802313606D4B1B686C4A62
:1014100043F4803313600BE0694B1B68684A23F484
:1014200080331360664B1B68654A23F48023136086
:101430007B685B68002B13D0FFF7C8FC386108E0BD
:10144000FFF7C4FC02463B69D31A642B01D903237E
:1014500007E25B4B1B6803F40033002BF0D014E071
:10146000FFF7B4FC386108E0FFF7B0FC02463B69C7
:10147000D31A642B01D90323F3E1514B1B6803F406
:101480000033002BF0D100E000BF7B681B6803F045
:101490000203002B63D04A4B9B6803F00C03002B24
:1014A0000BD0474B9B6803F00C03082B1CD1444B1B
:1014B0005B6803F48003002B16D1414B1B6803F0DB
:1014C0000203002B05D07B68DB68012B01D00123D0
:1014D000C7E13B4B1B6823F0F8027B681B69DB000C
:1014E000374913430B603AE07B68DB68002B20D060
:1014F000344B01221A60FFF769FC386108E0FFF7FE
:1015000065FC02463B69D31A022B01D90323A8E1EB
:101510002B4B1B6803F00203002BF0D0284B1B68F9
:1015200023F0F8027B681B69DB00254913430B603D
:1015300015E0244B00221A60FFF748FC386108E0F0
:10154000FFF744FC02463B69D31A022B01D903235F
:1015500087E11B4B1B6803F00203002BF0D17B6873
:101560001B6803F00803002B36D07B685B69002BF7
:1015700016D0154B01221A60FFF728FC386108E0ED
:10158000FFF724FC02463B69D31A022B01D903233F
:1015900067E10B4B5B6F03F00203002BF0D01BE005
:1015A000094B00221A60FFF711FC38610EE0FFF7CB
:1015B0000DFC02463B69D31A022B07D9032350E1E5
:1015C0000038024000004742800E4742884B5B6F64
:1015D00003F00203002BEAD17B681B6803F00403CD
:1015E000002B00F097800023FB75814B1B6C03F0F0
:1015F0008053002B0FD10023BB607D4B1B6C7C4ABA
:1016000043F0805313647A4B1B6C03F08053BB6030
:10161000BB680123FB75774B1B6803F48073002BB9
:1016200018D1744B1B68734A43F480731360FFF73F
:10163000CDFB386108E0FFF7C9FB02463B69D31ACE
:10164000022B01D903230CE16A4B1B6803F480735E
:10165000002BF0D07B689B68012B06D1644B1B6F7D
:10166000634A43F0010313671CE07B689B68052B0A
:101670000CD15F4B1B6F5E4A43F0040313675C4B56
:101680001B6F5B4A43F0010313670BE0584B1B6F62
:10169000574A23F001031367554B1B6F544A23F03D
:1016A000040313677B689B68002B15D0FFF78EFB44
:1016B00038610AE0FFF78AFB02463B69D31A41F220
:1016C0008832934201D90323CBE0494B1B6F03F0CF
:1016D0000203002BEED014E0FFF778FB38610AE03C
:1016E000FFF774FB02463B69D31A41F288329342FA
:1016F00001D90323B5E03E4B1B6F03F00203002B1F
:10170000EED1FB7D012B05D1394B1B6C384A23F000
:10171000805313647B689B69002B00F0A180344BDD
:101720009B6803F00C03082B5CD07B689B69022B41
:1017300041D1314B00221A60FFF748FB386108E0C5
:10174000FFF744FB02463B69D31A022B01D903235E
:1017500087E0274B1B6803F00073002BF0D17B68F8
:10176000DA697B681B6A1A437B685B6A9B011A43D0
:101770007B689B6A5B08013B1B041A437B68DB6A3E
:101780001B061B4913434B601B4B01221A60FFF7DA
:101790001DFB386108E0FFF719FB02463B69D31ACD
:1017A000022B01D903235CE0114B1B6803F000738B
:1017B000002BF0D054E0104B00221A60FFF706FB1C
:1017C000386108E0FFF702FB02463B69D31A022B9F
:1017D00001D9032345E0064B1B6803F00073002B7F
:1017E000F0D13DE07B689B69012B07D1012338E0F4
:1017F0000038024000700040600047421B4B5B68AD
:10180000FB607B689B69012B28D0FB6803F4800296
:101810007B68DB699A4221D1FB6803F03F027B6859
:101820001B6A9A421AD1FA6847F6C07313407A6865
:10183000526A9201934211D1FB6803F440327B68F3
:101840009B6A5B08013B1B049A4207D1FB6803F0CB
:1018500070627B68DB6A1B069A4201D0012300E0BC
:10186000002318461837BD4680BD00BF003802402F
:1018700080B584B000AF786039607B68002B01D1FF
:101880000123CCE0684B1B6803F007033A689A42D7
:101890000CD9654B3A68D2B21A70634B1B6803F0DF
:1018A00007033A689A4201D00123B8E07B681B68BD
:1018B00003F00203002B20D07B681B6803F00403B5
:1018C000002B05D0594B9B68584A43F4E053936072
:1018D0007B681B6803F00803002B05D0534B9B6803
:1018E000524A43F460439360504B9B6823F0F002EC
:1018F0007B689B684D4913438B607B681B6803F0D2
:101900000103002B44D07B685B68012B07D1474B58
:101910001B6803F40033002B19D101237FE07B689F
:101920005B68022B03D07B685B68032B07D13F4BBE
:101930001B6803F00073002B09D101236FE03B4BC0
:101940001B6803F00203002B01D1012367E0374B32
:101950009B6823F003027B685B68344913438B6008
:10196000FFF734FAF8600AE0FFF730FA0246FB6846
:10197000D31A41F28832934201D903234FE02B4B13
:101980009B6803F00C027B685B689B009A42EBD17A
:10199000254B1B6803F007033A689A420CD2224B8E
:1019A0003A68D2B21A70204B1B6803F007033A68FA
:1019B0009A4201D0012332E07B681B6803F00403E4
:1019C000002B08D0194B9B6823F4E0527B68DB683E
:1019D000164913438B607B681B6803F00803002BD8
:1019E00009D0124B9B6823F460427B681B69DB00C3
:1019F0000E4913438B6000F021F802460B4B9B68A5
:101A00001B0903F00F030A49CB5C22FA03F3094ACE
:101A10001360094B1B681846FFF794F9002318461A
:101A20001037BD4680BD00BF003C02400038024078
:101A3000C03A000800000020040000202DE9B04F4B
:101A400090B000AF00237B630023FB6300233B6364
:101A50000023BB63594B9B6803F00C03082B0DD08C
:101A6000082B00F2A180002B02D0042B03D09BE0B6
:101A7000534BBB639BE0534BBB6398E04F4B5B689E
:101A800003F03F037B634D4B5B6803F48003002B43
:101A900028D04A4B5B689B0900223B627A623B6A12
:101AA000C3F308000021474B03FB01F2002300FBB6
:101AB00003F31344434AA0FB0212FA620A46BA62D5
:101AC000FA6A1344FB627B6B0022BB61FA61D7E9BF
:101AD0000623D7E90A01FEF7CBFB02460B46134665
:101AE000FB6353E0354B5B689B0900223B617A61E5
:101AF0003B69C3F3080A4FF0000B52465B464FF0B8
:101B000000004FF00001590141EAD2615001024644
:101B10000B46B2EB0A0863EB0B094FF000024FF0E3
:101B200000034FEA891343EA98634FEA8812B2EB45
:101B3000080463EB09054FF000024FF00003EB00CF
:101B400043EA5473E20014461D4614EB0A033B605B
:101B500045EB0B037B604FF000024FF00003D7E929
:101B6000004529468B02214643EA915321468A02C9
:101B7000104619467B6B0022BB60FA60D7E902234E
:101B8000FEF776FB02460B461346FB630B4B5B6886
:101B90001B0C03F0030301335B003B63FA6B3B6BED
:101BA000B2FBF3F3BB6302E0054BBB6300BFBB6B4F
:101BB00018464037BD46BDE8B08F00BF0038024030
:101BC0000024F40040787D0180B400AF034B1B6813
:101BD0001846BD465DF8047B704700BF000000203A
:101BE00080B500AFFFF7F0FF0246054B9B689B0AEC
:101BF00003F007030349CB5C22FA03F3184680BDC8
:101C000000380240D03A000880B500AFFFF7DCFF93
:101C10000246054B9B685B0B03F007030349CB5C53
:101C200022FA03F3184680BD00380240D03A00087B
:101C300080B586B000AF786000237B6100233B61F4
:101C40007B681B6803F00103002B05D17B681B68D0
:101C500003F00403002B35D0624B00221A60FFF71B
:101C6000B5F8786108E0FFF7B1F802467B69D31A4E
:101C7000022B01D90323B0E05B4B1B6803F0006328
:101C8000002BF0D17B685B689A017B689B681B071F
:101C900055491343C1F88430524B01221A60FFF7B3
:101CA00095F8786108E0FFF791F802467B69D31A4E
:101CB000022B01D9032390E04B4B1B6803F0006318
:101CC000002BF0D07B681B6803F00203002B00F0B0
:101CD00083800023FB60444B1B6C434A43F08053DA
:101CE0001364414B1B6C03F08053FB60FB683F4B5C
:101CF0001B683E4A43F480731360FFF767F878610E
:101D000008E0FFF763F802467B69D31A022B01D97A
:101D1000032362E0354B1B6803F48073002BF0D083
:101D2000314B1B6F03F440733B613B69002B2FD099
:101D30007B68DB6803F440733A699A4228D02A4BE7
:101D40001B6F23F440733B61294B01221A60284B1F
:101D500000221A60244A3B691367234B1B6F03F070
:101D60000103012B14D1FFF731F878610AE0FFF786
:101D70002DF802467B69D31A41F28832934201D989
:101D800003232AE0184B1B6F03F00203002BEED055
:101D90007B68DB6803F44073B3F5407F0DD1124BD1
:101DA0009B6823F4F8127B68DB6823F0704323F40C
:101DB00040730D4913438B6005E00B4B9B680A4A47
:101DC00023F4F8139360084B1A6F7B68DB68C3F346
:101DD0000B03054913430B67002318461837BD460C
:101DE00080BD00BF680047420038024000700040DC
:101DF000400E474280B584B000AF78600123FB738A
:101E00007B68002B01D1012373E07B685B7FDBB231
:101E1000002B05D17B6800221A777868FEF7F0FD69
:101E20007B6802225A777B681B68DB6803F010032B
:101E3000102B55D07B681B68CA225A627B681B68CE
:101E400053225A62786800F049FA0346FB73FB7B21
:101E5000002B2CD17B681B689B687A68126823F47E
:101E6000E00323F0400393607B681B6899687B68FC
:101E70005A687B681B691A437B685B691A437B68F5
:101E80001B680A439A607B681B687A68D2681A618B
:101E90007B681B6819697B689B681A047B681B68F0
:101EA0000A431A61786800F050FA0346FB73FB7B23
:101EB000002B10D17B681B681A6C7B681B6822F4AE
:101EC00080221A647B681B68196C7B689A697B683E
:101ED0001B680A431A647B681B68FF225A6201E090
:101EE0000023FB73FB7B002B02D17B6801225A7716
:101EF000FB7B18461037BD4680BD90B587B000AF5C
:101F0000F860B9607A6000237B61FB681B7F012B5E
:101F100001D1022387E0FB6801221A77FB680222C5
:101F20005A777B68002B26D1FB681B689B6803F0FF
:101F30004003002B02D1BB680022DA70BB681B781B
:101F4000184600F027FA03461C04BB685B78184665
:101F500000F020FA03461B021C43BB689B7818461E
:101F600000F018FA034644EA0302BB68DB789B05DD
:101F700013437B6118E0FB681B689B6803F0400318
:101F8000002B02D1BB680022DA70BB681B781A04F0
:101F9000BB685B781B021343BA6892781A43BB682C
:101FA000DB789B0513437B61FB681B68CA225A627E
:101FB000FB681B6853225A62F86800F08FF90346E9
:101FC000FB74FB7C002B20D1FB681A687B6903F053
:101FD0007F3323F0FE431360FB681B689A68FB683D
:101FE0001B6822F480229A60FB681B689968BB68B2
:101FF000DA68BB681B691A43FB681B680A439A606E
:10200000F86800F0A2F90346FB74FB7C002B02D1B8
:10201000FB6801225A77FB681B68FF225A62FB6843
:1020200000221A77FB7C18461C37BD4690BD80B550
:1020300086B000AFF860B9607A6000237B61FB680E
:102040001B689A6ABB685A60FB681B681B69C3F30C
:102050000E02BB689A60FB681B681B6803F07F3345
:1020600023F0FE437B617B691B0CDBB203F03F0373
:10207000DAB2BB681A707B691B0ADBB203F07F031C
:10208000DAB2BB685A707B69DBB203F07F03DAB265
:10209000BB689A707B699B0DDBB203F00103DAB277
:1020A000BB68DA707B68002B1AD1BB681B781846B6
:1020B00000F08EF903461A46BB681A70BB685B785D
:1020C000184600F085F903461A46BB685A70BB688B
:1020D0009B78184600F07CF903461A46BB689A7054
:1020E000002318461837BD4680BD90B587B000AFB5
:1020F000F860B9607A6000237B61FB681B7F012B6D
:1021000001D1022371E0FB6801221A77FB680222E9
:102110005A777B68002B0ED1BB685B7803F0100305
:10212000002B08D0BB685B7823F01003DBB20A33C6
:10213000DAB2BB685A707B68002B1CD1BB68DB78B5
:10214000184600F027F903461C04BB685B78184664
:1021500000F020F903461B021C43BB689B7818461D
:1021600000F018F9034644EA0302BB681B785B03DE
:1021700013437B610EE0BB68DB781A04BB685B78B5
:102180001B021343BA6892781A43BB681B785B033F
:1021900013437B61FB681B68CA225A62FB681B6899
:1021A00053225A62F86800F099F80346FB74FB7CEE
:1021B000002B0CD1FB681A687B6923F07F4323F066
:1021C000C0035360F86800F0C0F80346FB74FB7C62
:1021D000002B02D1FB6801225A77FB681B68FF22A3
:1021E0005A62FB6800221A77FB7C18461C37BD46F2
:1021F00090BD80B586B000AFF860B9607A6000230A
:102200007B61FB681B685B6823F07F4323F0C0039E
:102210007B617B691B0CDAB2BB68DA707B691B0AD5
:10222000DBB203F01F03DAB2BB685A707B69DBB222
:1022300003F03F03DAB2BB689A707B695B0BDBB2D9
:1022400003F00703DAB2BB681A707B68002B1AD15F
:10225000BB68DB78184600F0BBF803461A46BB683B
:10226000DA70BB685B78184600F0B2F803461A468D
:10227000BB685A70BB689B78184600F0A9F8034603
:102280001A46BB689A70002318461837BD4680BDB1
:1022900080B584B000AF78600023FB607B681B686A
:1022A0000D4ADA60FEF792FDF86009E0FEF78EFD58
:1022B0000246FB68D31AB3F57A7F01D9032307E0FE
:1022C0007B681B68DB6803F02003002BEED0002343
:1022D00018461037BD4680BD5F7F010080B584B0D1
:1022E00000AF78600023BB600023FB737B681B6832
:1022F000DB6803F04003002B22D17B681B68DA689F
:102300007B681B6842F08002DA60FEF75FFDB86010
:102310000CE0FEF75BFD0246BB68D31AB3F57A7F8B
:1023200004D97B6804225A770123FB737B681B68FE
:10233000DB6803F04003002B02D1FB7B012BE8D1CB
:10234000FB7B18461037BD4680BD80B584B000AF1A
:1023500078600023FB737B681B68DA687B681B6806
:1023600022F08002DA607B681B689B6803F0200320
:10237000002B0AD17868FFF78BFF0346002B04D0AF
:102380007B6804225A770123FB73FB7B18461037C6
:10239000BD4680BD80B485B000AF0346FB7100230D
:1023A000FB6005E0FB680133FB60FB790A3BFB71D6
:1023B000FB79092BF6D8FB68DBB21B01DAB2FB799B
:1023C0001343DBB218461437BD465DF8047B7047F3
:1023D00080B485B000AF0346FB710023FB60FB793E
:1023E0001B09DBB21A4613469B0013445B00FB60DB
:1023F000FB68DAB2FB7903F00F03DBB21344DBB204
:1024000018461437BD465DF8047B704780B582B02E
:1024100000AF78607B68002B01D1012342E07B682C
:1024200093F84130DBB2002B06D17B68002283F8A1
:1024300040207868FEF70EFB7B68242283F8412059
:102440007B681B68DA687B681B6822F40052DA60DC
:10245000786800F073F97B681B681A697B681B68F1
:1024600022F490421A617B681B685A697B681B687A
:1024700022F02A025A617B681B68DA687B681B6855
:1024800042F40052DA607B6800225A647B682022A2
:1024900083F841207B68202283F842207B68002259
:1024A0005A63002318460837BD4680BD80B58AB000
:1024B00002AFF860B9603B601346FB8000237B618C
:1024C000FB6893F84130DBB2202B75D1BB68002B41
:1024D00002D0FB88002B01D101236EE0FB680022B3
:1024E0005A64FB68212283F84120FEF76FFC786173
:1024F000FB68FA889A84FB68FA88DA84FB689B6830
:10250000B3F5805F08D1FB681B69002B04D1002361
:10251000FB61BB68BB6103E0BB68FB610023BB617F
:102520002EE03B6800937B6900228021F86800F070
:1025300048F80346002B05D0FB68202283F8412091
:1025400003233AE0FB69002B0BD1BB691B881A46B9
:10255000FB681B68C2F308025A60BB690233BB61A7
:1025600007E0FB691A78FB681B685A60FB69013356
:10257000FB61FB68DB8C9BB2013B9AB2FB68DA849F
:10258000FB68DB8C9BB2002BCBD13B6800937B6953
:1025900000224021F86800F014F80346002B05D013
:1025A000FB68202283F84120032306E0FB682022F9
:1025B00083F84120002300E0022318462037BD465F
:1025C00080BD80B586B000AFF860B9603B6013464F
:1025D000FB713BE03B6AB3F1FF3F37D0FEF7F6FB00
:1025E00002463B68D31A3A6A9A4202D33B6A002BEE
:1025F00001D103233AE0FB681B68DB6803F00403A6
:10260000002B23D0BB68802B20D0BB68402B1DD073
:10261000FB681B681B6803F00803082B16D1002316
:102620007B61FB681B681B687B61FB681B685B68E0
:102630007B617B69F86800F01DF8FB6808225A642A
:10264000FB68002283F8402001230FE0FB681B6831
:102650001A68BB681340BA689A420CBF0123002372
:10266000DBB21A46FB799A42B4D0002318461837D9
:10267000BD4680BD80B495B000AF78607B681B68B4
:102680000C337B637B6B53E8003F3B633B6B23F472
:102690009073FB647B681B680C33FA6C3A64FB63D1
:1026A000F96B3A6C41E80023BB63BB6B002BE5D1AF
:1026B0007B681B6814333B623B6A53E8003FFB6155
:1026C000FB6923F00103BB647B681B681433BA6C9D
:1026D000FA62BB62B96AFA6A41E800237B627B6AEC
:1026E000002BE5D17B681B6B012B19D17B681B6824
:1026F0000C33FB60FB6853E8003FBB60BB6823F012
:1027000010037B647B681B680C337A6CBA617B6155
:102710007969BA6941E800233B613B69002BE5D147
:102720007B68202283F842207B6800221A6300BF66
:102730005437BD465DF8047B704700002DE9B04F6B
:10274000C0B000AFC7F8F400D7F8F4301B681B69BD
:1027500023F44050D7F8F430D968D7F8F4301A6829
:1027600040EA01031361D7F8F4309A68D7F8F430DF
:102770001B691A43D7F8F4305B691A43D7F8F43071
:10278000DB691343C7F8F830D7F8F4301B68DB680F
:1027900023F4164121F00C01D7F8F4301A68D7F869
:1027A000F8300B43D360D7F8F4301B685B6923F42F
:1027B0004070D7F8F4309969D7F8F4301A6840EAD5
:1027C00001035361D7F8F4301A688F4B9A4205D051
:1027D000D7F8F4301A688D4B9A4204D1FFF714FAF7
:1027E000C7F8FC0003E0FFF7FBF9C7F8FC00D7F8D7
:1027F000F430DB69B3F5004F40F00C81D7F8FC30C2
:102800000022C7F8E830C7F8EC20D7E93A4522465D
:102810002B469118B9655B41FB65D7E91623214624
:1028200012EB0108294643EB01094FF000024FF07B
:1028300000034FEAC90343EA58734FEAC8029046BF
:102840009946234618EB0303C7F8E0302B4649EBC3
:102850000303C7F8E430D7F8F4305B680022C7F808
:10286000D830C7F8DC20D7E936120B46DB183B65B9
:10287000134642EB03037B65D7E91423D7E93801FC
:10288000FDF7F6FC02460B46614BA3FB02235B09F6
:102890001C01D7F8FC300022C7F8D030C7F8D4208C
:1028A000D7E9348942464B469118B9645B41FB64D1
:1028B000D7E91223414612EB010A494643EB010BCB
:1028C0004FF000024FF000034FEACB0343EA5A7384
:1028D0004FEACA0292469B4643461AEB0303C7F8E7
:1028E000C8304B464BEB0303C7F8CC30D7F8F43075
:1028F0005B680022C7F8C030C7F8C420D7E930129F
:102900000B46DB183B64134642EB03037B64D7E9B9
:102910001023D7E93201FDF7ABFC02460B46114606
:102920003B4BA3FB01235B09642202FB03F3CB1A9D
:10293000DB0003F13202364BA3FB02235B095B0091
:1029400003F4F8731C44D7F8FC300022C7F8B83001
:10295000C7F8BC20D7E92E8942464B469118B96387
:102960005B41FB63D7E90E23414651183963494661
:102970004B417B634FF000024FF00003D7E90CABF3
:102980005946CB00514643EA51735146CA0010469E
:102990001946034642469B18C7F8B0304B460A46D4
:1029A00042EB0303C7F8B430D7F8F4305B68002279
:1029B000C7F8A830C7F8AC20D7E92A120B46DB18B5
:1029C000BB62134642EB0303FB62D7E90A23D7E954
:1029D0002C01FDF74DFC02460B460D4BA3FB0213E9
:1029E0005B09642101FB03F3D31ADB003233084A8D
:1029F000A2FB03235B0903F00702D7F8F4301B683E
:102A000022449A6006E100BF00100140001401401A
:102A10001F85EB51D7F8FC300022C7F8A030C7F86B
:102A2000A420D7E9288942464B46911839625B4178
:102A30007B62D7E9082341465418494643EB010518
:102A40004FF000024FF00003EB0043EA5473E20042
:102A500014461D464346E318C7F898304B4645EBED
:102A60000303C7F89C30D7F8F4305B680022C7F83E
:102A70009030C7F894204FF000024FF00003D7E9E0
:102A8000244529468B00214643EA917321468A005A
:102A9000D7E92601FDF7ECFB02460B46604BA3FB92
:102AA00002235B091C01D7F8FC300022C7F88830EC
:102AB000C7F88C20D7E9228942464B469118B96164
:102AC0005B41FB61D7E9062341465118396149460C
:102AD0004B417B614FF000024FF00003D7E904AB9C
:102AE0005946CB00514643EA51735146CA0010463D
:102AF0001946034642469B18C7F880304B460A46A3
:102B000042EB0303C7F88430D7F8F4305B68002247
:102B1000BB67FA674FF000024FF00003D7E91E8948
:102B200049468B00414643EA917341468A00D7E902
:102B30002001FDF79DFB02460B461146384BA3FBD7
:102B400001235B09642202FB03F3CB1A1B0132331E
:102B5000334AA2FB03235B0903F0F0031C44D7F8BC
:102B6000FC3000223B677A67D7E91C8942464B4616
:102B70009118B9605B41FB60D7E9022341465118C7
:102B8000396049464B417B604FF000024FF0000333
:102B9000D7E900AB5946CB00514643EA5173514641
:102BA000CA0010461946034642469B18BB664B4670
:102BB0000A4642EB0303FB66D7F8F4305B68002259
:102BC0003B667A664FF000024FF00003D7E91889A0
:102BD00049468B00414643EA917341468A00D7E952
:102BE0001A01FDF745FB02460B460D4BA3FB0213F2
:102BF0005B09642101FB03F3D31A1B013233084A3A
:102C0000A2FB03235B0903F00F02D7F8F4301B6823
:102C100022449A6000BF07F58077BD46BDE8B08FBB
:102C20001F85EB51002310B50446C0E90033C0E90D
:102C30000433836081814366C2818361194608221F
:102C40005C3000F0C3F80D4B63620D4BA3620D4B7B
:102C5000E3620D4B23630D4B24629C4206D003F1CB
:102C60006802944202D0D0339C4205D104F158004E
:102C7000BDE8104000F0DCB810BD00BF8936000888
:102C8000AB360008E336000807370008F8000020DC
:102C9000024A0349034800F069B800BF0C00002055
:102CA000213600081C00002041680C4B994210B5E9
:102CB000044601D000F0B4FCA168094B994202D04F
:102CC000204600F0ADFCE168064B994204D0204656
:102CD000BDE8104000F0A4BC10BD00BFF80000200B
:102CE00060010020C801002010B50B4B0B4C0C4AB2
:102CF0001A60204600220421FFF794FF04F16800C7
:102D000001220921FFF78EFF04F1D0000222BDE865
:102D100010401221FFF786BF30020020F80000208B
:102D2000912C0008014800F084B800BF3502002053
:102D3000014800F07FB800BF3502002010B50446FE
:102D4000FFF7F0FF236A1BB1BDE81040FFF7F0BFAB
:102D5000044B2362044B1B68002BF5D1FFF7C4FF23
:102D6000F2E700BFA92C0008300200202DE9F8434B
:102D70000746884614460026D4E90195B9F10109B1
:102D800005D52468002CF7D13046BDE8F883AB891F
:102D9000012B07D9B5F90E30013303D02946384647
:102DA000C04706436835E9E70FB407B5064904ABE9
:102DB000086853F8042B8168019300F065F803B0AC
:102DC0005DF804EB04B0704718000020024403468D
:102DD000934200D1704703F8011BF9E7014B1868D3
:102DE000704700BF1800002070B50D4D0D4C641BDE
:102DF000A4100026A64209D10B4D0C4C00F040FE59
:102E0000641BA4100026A64205D170BD55F8043BF2
:102E100098470136EEE755F8043B98470136F2E74C
:102E2000143B0008143B0008143B0008183B000842
:102E30007047704770479368013B002B10B4936054
:102E400008DA9469A34201DB0A2903D15DF8044B37
:102E500000F05DBC1368581C1060197008465DF8DE
:102E6000044B7047F8B506460F461446D518AC42D9
:102E700001D1002007E014F8011B3A463046FFF765
:102E8000DAFF431CF3D1F8BD2DE9F04F0D469DB09C
:102E900014469846064618B1036A0BB9FFF74EFF71
:102EA0006B6ED90705D4AB899A0502D4A86DFFF7DC
:102EB000C0FFAB891B0701D52B699BB9294630465A
:102EC00000F064FC70B16B6EDC0704D54FF0FF308E
:102ED0001DB0BDE8F08FAB899805F7D4A86DFFF75A
:102EE000A9FFF3E70023099320238DF82930CDF8BB
:102EF0000C803023DFF8AC818DF82A304FF00109C7
:102F000023469A4613F8012B0AB1252AF9D1BAEBC8
:102F1000040B0BD05B46224629463046FFF7A2FF42
:102F2000013000F0A780099A5A4409929AF80030BB
:102F3000002B00F09F8000234FF0FF32CDE90523E6
:102F40000AF1010A049307938DF853301A935446FB
:102F5000052214F8011B5348FDF73AF9049AD8B931
:102F6000D10644BF20238DF85330130744BF2B23D1
:102F70008DF853309AF800302A2B15D0079A544612
:102F800000204FF00A0C214611F8013B303B092B81
:102F90004BD9B0B1079214E0A0EB080309FA03F390
:102FA00013430493A246D2E7039B191D1B680391A8
:102FB000002BBBBF5B4242F0020207930793B8BFEE
:102FC000049223782E2B0AD163782A2B32D1039BCB
:102FD0001A1D1B68039243EAE37302340593DFF87A
:102FE000D4A0217803225046FDF7F2F838B1049BB3
:102FF000A0EB0A004022824013430134049314F8EA
:10300000011B29488DF828100622FDF7E1F8002859
:103010003FD0264B1BBB039B073323F0070308332A
:103020000393099B3B4409936AE70CFB02320C466D
:103030000120A8E700230134059319464FF00A0C3C
:10304000204610F8012B303A092A03D9002BC6D0AC
:103050000591C4E70CFB012104460123F0E703AB13
:1030600000932A46124B04A93046AFF3008007466E
:10307000781CD6D16B6ED90705D4AB899A0502D4DA
:10308000A86DFFF7D7FEAB895B063FF51FAF099828
:103090001EE703AB00932A46054B04A9304600F017
:1030A0001BF9E4E7D83A0008E23A00080000000003
:1030B000652E0008DE3A000870B50F4E0C463168E8
:1030C000054611B900F070FC30602146284600F03A
:1030D0006BFC431C03D14FF0FF34204670BDC41C71
:1030E00024F00304A042F8D0211A284600F05CFC2A
:1030F0000130F2D1EFE700BF380200202DE9F8439C
:10310000CD1C25F0030508350C2D38BF0C25002DEE
:10311000064601DBA94204D90C2333600020BDE838
:10312000F883DFF8D48000F0A3FAD8F800301C460A
:1031300044BB29463046FFF7BFFF431C044658D125
:10314000D8F800402746002F43D1002C4BD02368ED
:103150003946304604EB030900F026FC814542D194
:1031600021686D1A29463046FFF7A6FF01303AD094
:1031700023682B442360D8F800305A6862BBC8F833
:1031800000700FE02268521B20D40B2A17D9611956
:10319000A342256018BF5960636808BFC8F80010D3
:1031A00062514B60304600F069FA04F10B00231DB8
:1031B00020F00700C21A1CBF1B1AA350AFE76268B9
:1031C000A3420CBFC8F800205A60EBE723466468AE
:1031D000AEE73C467F68B6E71A465B68A342FBD180
:1031E00000235360DEE70C233360304600F046FADC
:1031F00094E70560D6E700BF3C0200202DE9F047C8
:10320000164698468A680B69DDF820909342B8BF4D
:103210001346336091F8432007460C460AB1013348
:1032200033602368990642BF3368023333602568F0
:1032300015F0060506D104F1190AE36832689B1AF5
:10324000AB4226DC94F843302268003B18BF0123D0
:1032500092062BD404F1430241463846C847013058
:103260001ED02368226903F00603042B02BFE56821
:103270003368ED1AA3680CBF25EAE5750025934273
:10328000C4BF9B1AED1800261A34B5421AD100208B
:1032900008E00123524641463846C847013003D171
:1032A0004FF0FF30BDE8F0870135C6E7E1185A1C42
:1032B000302081F84300224494F8451082F84310EE
:1032C0000233C7E70123224641463846C84701304A
:1032D000E6D00136D9E700002DE9FF470F7E0C9EAE
:1032E000782F914680460C469A4601F1430207D852
:1032F000622F0AD8002F00F0D280582F00F0B9803A
:1033000004F1420684F842703AE0A7F16303152BFA
:10331000F6D801A151F823F0713300088533000875
:1033200001330008013300080133000801330008AD
:103330008533000801330008013300080133000819
:103340000133000885340008AF3300083F3400081B
:103350000133000801330008A734000801330008D6
:10336000AF33000801330008013300084734000878
:1033700033681A1D1B68326004F1420684F842303B
:1033800001239DE033682068191D3160060601D5D0
:103390001D6803E04506FBD5B3F90050002D03DAA4
:1033A0002D236D4284F8433059480A2311E02168E7
:1033B0003368080653F8045B02D4490648BFADB22F
:1033C0006F2F5348336014BF0A230823002184F869
:1033D00043106668A660002EA2BF216821F0040198
:1033E00021600DB9002E4BD01646B5FBF3F103FB5F
:1033F0001157C75D06F8017D2F46BB420D46F4D933
:10340000082B0BD12368DF0708D52369616899422F
:10341000DEBF302306F8013C06F1FF36921B226125
:10342000CDF800A04B4603AA21464046FFF7E6FE32
:1034300001304AD14FF0FF3004B0BDE8F087236877
:1034400043F0200323603348782784F845702368CD
:1034500031681F0651F8045B02D45F0648BFADB265
:103460003160D90744BF43F0200323601DB110230E
:10347000ACE72748E9E7236823F020032360F6E759
:103480001646BDE7336825686169181D30602E0651
:103490001B6801D5196002E06806FBD5198000237E
:1034A00023611646BCE733681A1D32601E686268E5
:1034B00000213046FCF78CFE08B1801B6060636819
:1034C0002361002384F84330AAE723693246494642
:1034D0004046D0470130ADD023689B0713D4E06845
:1034E000039B9842B8BF1846A6E7012332464946D7
:1034F0004046D04701309DD00135E36803995B1AFF
:10350000AB42F2DCEBE7002504F11906F5E700BF5A
:10351000E93A0008FA3A0008B1F90C202DE9F04127
:10352000160705460C4654D44B68002B02DC0B6C86
:10353000002B48DDE66A002E45D0002312F48052AD
:103540002F68216A2B6030D0626DA389590705D599
:103550006368D21A636B0BB1236CD21A0023E66A3C
:10356000216A2846B047431CA38906D129681D2932
:103570002BD82A4A0A41D60727D400226260D904F0
:103580002269226004D5421C01D12B6803B9606511
:10359000616B2F60B9B104F14403994202D028460F
:1035A00000F024FA002363630DE001232846B047AE
:1035B0000246501CC9D12B68002BC6D01D2B01D050
:1035C000162B1ED12F60002022E043F040031BB2D7
:1035D0001BE00F69002FF6D093070E6808BF4B69F8
:1035E0000F6018BF0023A6EB07088B60B8F1000F2F
:1035F000E9DD216AA66A43463A462846B0470028D4
:1036000008DCB4F90C3043F04003A3814FF0FF30E5
:10361000BDE8F0810744A8EB0008E7E7FEFFBFDF45
:1036200038B50B6905460C4613B90025284638BD48
:1036300018B1036A0BB9FFF781FBB4F90C30002B0A
:10364000F3D0626ED00704D4990502D4A06DFFF7C1
:10365000F0FB28462146FFF75FFF636EDA07054659
:10366000E4D4A3899B05E1D4A06DFFF7E3FBDDE77C
:103670000148FFF7DEBB00BF340200200148FFF71E
:10368000D9BB00BF3402002010B50C46B1F90E10B2
:1036900000F078F90028ABBF636DA3891B1823F4F1
:1036A0008053ACBF6365A38110BD2DE9F0411F4677
:1036B0008B89DB0505460C46164605D5B1F90E107B
:1036C0000223002200F04CF9A389B4F90E1023F470
:1036D0008053A38132463B462846BDE8F04100F0C6
:1036E00073B910B50C46B1F90E1000F039F9431C4E
:1036F000A38915BF606523F4805343F48053A381ED
:1037000018BFA38110BDB1F90E1000F0F7B8F8B5DD
:103710000E461446054618B1036A0BB9FFF70EFBB7
:10372000A369A360A3891A0701D5236943B9214678
:10373000284600F02BF818B14FF0FF373846F8BD97
:1037400023682269981A6369F6B28342374605DC1A
:1037500021462846FFF764FF0028EDD1A368013B0E
:10376000A36023685A1C22601E706269431C9A423F
:1037700004D0A389DB07E1D50A2EDFD121462846F4
:10378000FFF74EFF0028D9D0D6E7000038B5294B07
:10379000054618680C4618B1036A0BB9FFF7CEFA54
:1037A000B4F90C30190722D4DA0607D409222A60AA
:1037B00043F04003A3814FF0FF3033E0580712D5A8
:1037C000616B41B104F14403994202D0284600F0F4
:1037D0000DF900236363A38923F02403A38100234D
:1037E000636023692360A38943F00803A3812369ED
:1037F0004BB9A38903F42073B3F5007F03D02146AE
:10380000284600F03FF8B4F90C3013F001020AD05A
:103810000022A26062695242A261226942B913F099
:103820008000C5D138BD990758BF6269A260F4E72E
:103830000020F7E71800002070B50C46B1F90E1013
:10384000002996B015461E460DDAA38913F0800FA5
:103850004FF0000114BF40234FF48063002031601B
:103860002B6016B070BD6A4600F058F80028ECDBFB
:10387000019901F47041A1F50053594259414FF4A7
:103880008063EBE78B89F7B59D0706460C4607D5A5
:1038900004F14703236023610123636103B0F0BD9A
:1038A00001AB6A46FFF7C8FF009F05463946304620
:1038B000FFF724FC48B9B4F90C309A05EED423F094
:1038C000030343F00203A381E2E7A389206043F0EE
:1038D0008003A381019BC4E904075BB1B4F90E1016
:1038E000304600F02DF828B1A38923F0030343F0FC
:1038F0000103A381A3891D43A581CFE738B5064DF8
:103900000023044608462B60FDF754F9431C02D1FE
:103910002B6803B1236038BD4002002038B5074D45
:1039200000230446084611462B60FDF74FF9431C5F
:1039300002D12B6803B1236038BD00BF40020020D4
:1039400038B5064D0023044608462B60FDF74EF9B6
:10395000431C02D12B6803B1236038BD4002002014
:1039600038B5074D04460846114600222A601A461B
:10397000FDF747F9431C02D12B6803B1236038BD22
:103980004002002038B5074D044608461146002283
:103990002A601A46FDF7D5F8431C02D12B6803B103
:1039A000236038BD4002002038B5064D0023044690
:1039B00008462B60FDF732F9431C02D12B6803B196
:1039C000236038BD4002002038B5074D0446084644
:1039D000114600222A601A46FDF7D0F8431C02D196
:1039E0002B6803B1236038BD4002002038B505467E
:1039F000002941D051F8043C0C1F002BB8BFE4183B
:103A0000FFF736FE1D4A136833B963601460284619
:103A1000BDE83840FFF732BEA34208D9206821181C
:103A20008B4201BF19685B6809182160EDE71A46EF
:103A30005B680BB1A342FAD911685018A0420BD1B0
:103A400020680144501883421160E0D118685B6817
:103A5000536008441060DAE702D90C232B60D6E7E4
:103A6000206821188B4204BF19685B68636004BF3B
:103A7000091821605460CAE738BD00BF3C0200202D
:103A8000F8B500BFF8BC08BC9E467047F8B500BF4B
:083A9000F8BC08BC9E4670471B
:103A9800593230253032642E4D253032642E44257B
:103AA80030326420253032643A253032643A253089
:103AB80032640D0A00000000000000000000000051
:103AC80001020304060708090000000001020304BC
:103AD800232D302B2000686C4C00656667454647EF
:103AE8000030313233343536373839414243444572
:103AF80046003031323334353637383961626364E1
:043B080065660000EE
:083B0C00C4C6FF7F01000000A8
:043B1400B5010008EF
:043B1800910100080F
:103B1C000024F40010000000010000000000000070
:103B2C0003000000F80000201C0000200000000032
:103B3C00F800002060010020C801002000000000F7
:103B4C000000000000000000000000000000000069
:103B5C000000000000000000000000000000000059
:103B6C000000000000000000000000000000000049
:083B7C00000000000000000041
:0400000508000CAD36
:00000001FF
